:100000000C9434000C943E000C943E000C943E0082
:100010000C943E000C943E000C943E000C943E0068
:100020000C943E000C943E000C943E000C943E0058
:100030000C943E000C943E000C943E000C943E0048
:100040000C943E000C943E000C943E000C943E0038
:100050000C943E000C943E000C943E000C943E0028
:100060000C943E000C943E0011241FBECFEFD8E04C
:10007000DEBFCDBF0E94D5000C94FC000C940000A4
:100080009C0140E050E060E472E48FE090E00E9468
:10009000DA00215030403093C5002093C40088E13D
:1000A0008093C10086E08093C2000895982F8091CC
:1000B000C00085FFFCCF9093C60008958091C000DA
:1000C00087FFFCCF8091C600089580E895E20E94EA
:1000D00040008AB1837C8AB98BB18C638BB9089557
:1000E0004A9917C08091C00085FFFCCF81E38093BF
:1000F000C6008091C00085FFFCCF81E38093C600DD
:1001000080ED97E020E931E0F9013197F1F70197AF
:10011000D9F74B9917C08091C00085FFFCCF81E3D0
:100120008093C6008091C00085FFFCCF82E380935E
:10013000C60080ED97E020E931E0F9013197F1F751
:100140000197D9F74C9917C08091C00085FFFCCF6B
:1001500082E38093C6008091C00085FFFCCF83E3DB
:100160008093C60080ED97E020E931E0F9013197F6
:10017000F1F70197D9F74D9917C08091C00085FF1D
:10018000FCCF82E38093C6008091C00085FFFCCF46
:1001900084E38093C60080ED97E020E931E0F90127
:1001A0003197F1F70197D9F708950E9465000E94F1
:1001B0007000FDCFA1E21A2EAA1BBB1BFD010DC0D2
:1001C000AA1FBB1FEE1FFF1FA217B307E407F50707
:1001D00020F0A21BB30BE40BF50B661F771F881FE3
:1001E000991F1A9469F760957095809590959B0179
:0C01F000AC01BD01CF010895F894FFCFD1
:00000001FF
