:100000000C9434000C943E000C943E000C943E0082
:100010000C943E000C943E000C943E000C943E0068
:100020000C943E000C943E000C943E000C943E0058
:100030000C943E000C943E000C943E000C943E0048
:100040000C943E000C943E000C943E000C943E0038
:100050000C943E000C943E000C943E000C943E0028
:100060000C943E000C943E0011241FBECFEFD8E04C
:10007000DEBFCDBF0E94C8000C94EF000C940000BE
:100080009C0140E050E060E472E48FE090E00E9468
:10009000CD00215030403093C5002093C40088E14A
:1000A0008093C10086E08093C2000895982F8091CC
:1000B000C00085FFFCCF9093C60008958091C000DA
:1000C00087FFFCCF8091C600089585B908958430DC
:1000D000910561F1853091057CF48130910501F144
:1000E000823091051CF4892BC9F02DC08230910516
:1000F000C9F0039741F518C087309105E9F08830C1
:10010000910534F48530910599F00697E1F412C019
:100110008830910599F00997B1F412C08FE111C0B0
:1001200086E00FC08BE30DC08FE20BC087E209C0F1
:100130008DE207C08DE305C087E003C08FE301C0F7
:100140008FE085B9089515B8089580E895E20E947A
:1001500040008FE384B908958091C00087FFFCCFF1
:100160008091C600813399F48091C00087FFFCCF55
:100170008091C600813329F481E090E00E946700FD
:100180000895823321F482E090E00E946700089590
:100190000E94A5000E94AC00FDCFA1E21A2EAA1B6E
:1001A000BB1BFD010DC0AA1FBB1FEE1FFF1FA21727
:1001B000B307E407F50720F0A21BB30BE40BF50B24
:1001C000661F771F881F991F1A9469F760957095AD
:1001D000809590959B01AC01BD01CF010895F894E5
:0201E000FFCF4F
:00000001FF
