:100000000C9434000C943E000C943E000C943E0082
:100010000C943E000C943E000C943E000C943E0068
:100020000C943E000C943E000C943E000C943E0058
:100030000C943E000C943E000C943E000C943E0048
:100040000C943E000C943E000C943E000C943E0038
:100050000C943E000C943E000C943E000C943E0028
:100060000C943E000C943E0011241FBECFEFD8E04C
:10007000DEBFCDBF0E94C5000C94EC000C940000C4
:10008000809585B908958430910551F185309105A9
:100090007CF481309105F1F0823091051CF4892BBC
:1000A00039F129C082309105B9F0039721F516C0C6
:1000B00087309105C9F08830910534F48530910579
:1000C00089F00697C1F40EC08830910579F0099740
:1000D00091F40EC089EF0DC084EE0BC080EE09C014
:1000E00089EC07C082EC05C088EF03C080EC01C03A
:1000F00080ED85B9089515B808959C0140E050E061
:1001000060E472E48FE090E00E94CA002150304029
:100110003093C5002093C40088E18093C10086E03D
:100120008093C2000895982F8091C00085FFFCCF76
:100130009093C60008958091C00087FFFCCF809106
:10014000C600089580E895E20E947D008FE384B99F
:1001500008958091C00087FFFCCF8091C600823354
:1001600099F48091C00087FFFCCF8091C600833353
:1001700029F483E090E00E9443000895843321F441
:1001800084E090E00E94430008950E94A2000E9433
:10019000A900FDCFA1E21A2EAA1BBB1BFD010DC0B9
:1001A000AA1FBB1FEE1FFF1FA217B307E407F50727
:1001B00020F0A21BB30BE40BF50B661F771F881F03
:1001C000991F1A9469F760957095809590959B0199
:0C01D000AC01BD01CF010895F894FFCFF1
:00000001FF
